:100000000C9434000C9446000C9446000C9446006A
:100010000C9446000C9446000C9446000C94460048
:100020000C9446000C9446000C9446000C94460038
:100030000C9446000C9446000C9446000C94460028
:100040000C9446000C9446000C9446000C94460018
:100050000C9446000C9446000C9446000C94460008
:100060000C9446000C94460011241FBECFEFD8E03C
:10007000DEBFCDBF21E0A0E0B1E001C01D92A13004
:10008000B207E1F70E9448000C9482000C94000033
:100090000E944A001F938FB7F8949091000190300E
:1000A00009F026C091E0909300018FBF2D98259A0A
:1000B0002D9A10E220E030E047EF5FE36BEF78E04D
:1000C00013B9F901D901CA010197F1F791E0E33FB2
:1000D000F105A207B30708F0912D9170EF5FFF4F74
:1000E000AF4FBF4F903079F7CB010197F1F7E8CFD1
:1000F0008FBF0E947F000E9481000E947B000E94AF
:080100007D00FFCFF894FFCF52
:00000001FF
